:020000040800F2
:1000000060050020010100084B320008572000085D
:1000100049320008490A0008A53400080000000021
:100020000000000000000000000000004F32000847
:100030004B0A0008000000004D3200085132000851
:100040001B0100081B0100081B0100081B01000820
:100050001B0100081B0100081B0100081B01000810
:100060001B0100081B0100081B0100081B01000800
:100070001B0100081B0100081B0100081B010008F0
:100080001B0100081B0100081B0100081B010008E0
:100090001B0100081B0100081B0100081B010008D0
:1000A0001B010008B53200081B0100081B010008F5
:1000B0001B0100081B010008000000005920000877
:1000C0001B01000800000000000000001B010008E8
:1000D000000000001B0100081B01000800000000D8
:1000E0001B0100081B0100081B010008DFF80CD0F1
:1000F00000F06CFC004800475947000860050020EC
:100100000648804706480047FEE7FEE7FEE7FEE7B1
:10011000FEE7FEE7FEE7FEE7FEE7FEE7B332000894
:10012000ED000008202A04DB203A21FA02F0002129
:10013000704721FA02F3D040C2F1200291400843F7
:1001400019467047D2B201E000F8012B491EFBD2DC
:1001500070470022F6E710B513460A4604461946D2
:10016000FFF7F0FF204610BDF0B480EA0102D40F83
:100170004200B2EB410F02D20246084611464A0045
:1001800042D0C30DDDB2C1F3C752AD1A202D35DA0E
:10019000C1F3160141F4000204B15242C5F1200638
:1001A00002FA06F12A411044B3EBD05F23D0C4B168
:1001B000012DA0EBC35009DCF0BC4FF0004202EA75
:1001C000C352DBB200F5000000F0DDBA400000F1E0
:1001D000807000EBC350A0F1807040EAD1704900FC
:1001E00009E0490841EAC071A0EBC35000F50000E6
:1001F000400800EBC350F0BC00F0BCBA61420122E1
:1002000002EB4101001BF6E7F0BC704781F00041B2
:10021000AAE780F00040A7E780EA010210B502F0EB
:100220000043400022D04A001FD0010E01EB1261B2
:10023000C0F35600C2F3560240F4000042F400023C
:10024000A0FB022000047F39140400D0401C50EAB7
:10025000124001D44000491EC2B20C0604EBD0107B
:10026000401C4008802A02D003E0002010BD20F08E
:100270000100002900DA0020184310BD30B480EAE4
:10028000010202F0004530F0004221F0004013D09E
:1002900090B1C30DD40DC2F31601C0F31600E41AD9
:1002A00041F4000140F400027D34914201D3641C0A
:1002B00000E04900002C02DA30BC002070474FF407
:1002C00000000023914201D3891A034340084FEAFA
:1002D0004101F7D151B1914202D14FF0004105E007
:1002E00002D24FF0010101E06FF0010103EBC450B5
:1002F000284430BC00F03EBA2DE9FE4F804681EA2A
:100300000300C00F0C46009021F0004123F000458F
:10031000B8EB0200A94105D24046214690461C4652
:100320000B46024623F00040104347D0270DC7F389
:100330000A00C3F30A510290401A019040286BDA78
:10034000C3F3130040F4801B0098924620B10023B1
:10035000D2EB030A63EB0B0B01985946C0F1400244
:10036000504600F0E6F906460D4650465946019AB9
:1003700000F0EEF910EB08006141002487EA115209
:1003800084EAE7731A4340D0009A62B3019A012AC3
:100390004FEA075215DC001B61EB02014FF00042EF
:1003A00002EA0752CDE90042001C41F580113246B5
:1003B0002B4600F025FA03B0BDE8F08F40462146F9
:1003C000F9E7001B61EB0201001C41F580130018E6
:1003D0005B412018A2F5001747EB030140EAD570F6
:1003E000B6196D4111E06D084FEA360645EAC07551
:1003F0004FEA0752001B61EB0201001C41F580111E
:1004000049084FEA30000019514132462B4603B0EB
:10041000BDE8F04F00F0E5B900980122400000234C
:10042000D0EB020263EBE073009821464FEAE074E0
:10043000B8EB000061EB0401E9E783F000435BE700
:1004400081F0004158E72DE9FE4F81EA030404F0F2
:10045000004421F0004100944FF0000B23F00043D2
:1004600050EA01045ED052EA03045BD0C3F30A549D
:10047000C1F30A552C44A4F2F3340194A0FB0254B6
:10048000C1F3130141F48011C3F3130343F4801348
:1004900001FB024400FB034E840A970A44EA81549C
:1004A00047EA8357A4FB076802958D0A05FB078579
:1004B0004FEA932C04FB0C542705029D4FEA065883
:1004C00047EA1637B5EB08056EEB070C870E920E60
:1004D00047EA811742EA8312A7FB0201B6EB0B0140
:1004E00064EB00042B0D43EA0C335E1844EB1C5004
:1004F000DA465146E7FB0201C5F313044FEA0B331A
:1005000043EA14534FEA0432019C43EA0603A4F180
:100510000C040294009CCDE900B400F071F903B022
:10052000BDE8F08F00200146F9E72DE9F04D81EAA2
:10053000030404F0004B21F0004514464FF0000A7C
:1005400023F0004150EA050220D054EA01021DD0F8
:10055000C5F30A570246C5F31303C1F31300C1F3F1
:100560000A5640F4801543F48013A7EB0608101BCD
:10057000D64608F2FD3873EB050002D308F10108F6
:1005800001E092185B41B8F1000F03DA0020014648
:10059000BDE8F08D00204FF48011064684460EE041
:1005A000171B73EB050705D3121B63EB050306430B
:1005B0004CEA010C49084FEA300092185B4150EABE
:1005C0000107EDD152EA030012D082EA040083EA67
:1005D0000501084305D0101BAB4106D201220023C0
:1005E00006E000224FF0004302E06FF001025310DA
:1005F0001AEB06004CEB085110EB0A0041EB0B0123
:10060000BDE8F04D00F0EDB8C10F80EAE07008449D
:10061000CA079623002100F0B6B89623002211469F
:1006200000F0B1B80EB5C10F80EAE0700844CA0707
:10063000002140F233438DE80E000A460B4600F0DD
:10064000DFF803B000BD00F0004230F000400AD0F7
:10065000C10D01F56071C0F3160042EA0151C208F4
:1006600040071143704700200146704701F00043E6
:1006700030B421F0004150EA010206D00A0DA2F583
:100680006072C1F31301002A02DC30BC0020704705
:10069000440F44EAC104C100E01830BC00EBC25072
:1006A00000F068B830B50B46014600202022012436
:1006B00009E021FA02F59D4205D303FA02F5491B30
:1006C00004FA02F52844151EA2F10102F1DC30BD46
:1006D0002DE9F05F0546002092469B468846064677
:1006E000814640241BE02846414647462246FFF704
:1006F00019FD53465A46C01A914110D31146184667
:10070000224600F016F82D1A67EB01084F462246E4
:100710000120002100F00DF817EB00094E41201ECA
:10072000A4F10104DFDC484631462A464346BDE8D1
:10073000F09F202A04DB203A00FA02F100207047E3
:100740009140C2F1200320FA03F31943904070470F
:10075000202A06DBCB17203A41FA02F043EAE07385
:1007600006E041FA02F3D040C2F120029140084372
:10077000194670470029A8BF7047401C490008BFB0
:1007800020F00100704710B4B0FA80FC00FA0CF0C1
:1007900050EA010404BF10BC704749B1CCF12004F9
:1007A00021FA04F411FA0CF118BF01212143084386
:1007B000A3EB0C01CB1D4FEA00614FEA102042BFB2
:1007C000002010BC704700EBC35010440029A4BFA8
:1007D00010BC7047401C490008BF20F0010010BC4D
:1007E000704710B5141E73F1000408DA401C41F183
:1007F000000192185B411A4301D120F0010010BDA5
:100800002DE9F04D92469B4611B1B1FA81F202E01A
:10081000B0FA80F220329046FFF78BFF04460F4675
:1008200040EA0A0041EA0B0153465A46084313D0F6
:10083000114653EA010019D0C8F140025046FFF7B3
:1008400071FC05460E46504659464246FFF771FF79
:10085000084305D0012004E020463946BDE8F08D6C
:100860000020054346EAE0762C4337430A986305A7
:10087000E40AA0EB08000022FD0A44EA47540A30CB
:1008800002D500200146E9E7010510196941DDE9BB
:10089000084500196941BDE8F04DA2E770B521F0A7
:1008A000004303430CD0C1F30A550024D5EB0405E3
:1008B00064EB0403D617AD1AB34102DB00200146F6
:1008C00070BD201841EB025170BD2DE9F04D0023A1
:1008D0001A461B1A8A4103DB00200146BDE8F08D51
:1008E000C1F30A52C1F3130141F480154FF0000B1C
:1008F000D10702D100186D41521E0027044640F274
:10090000FF11384601EB620A3E468046024600204F
:100910004FF48011FFF706FCC2197141BB1846EB7A
:100920000100B4EB030C75EB000C04D3E41A65EB87
:10093000000517460E46241908F101006D41804656
:100940003428E3DDF91946EB0600091BA84103D260
:100950004FF0FF32134601E0002213461BEB070065
:1009600046EB0A51BDE8F04DFFF73BBFC1F30A5219
:10097000C1F3130140F2FF3341F480119A4202DACD
:1009800000200146704740F233439A42A2F23342BC
:1009900002DC5242FFF7C6BBFFF7CBBE30B5041EE8
:1009A00071F1000404DB4FF00044404264EB0101AC
:1009B000141E73F1000405DB1C464FF00043524245
:1009C00063EB0403994208BF904230BD064C074DCB
:1009D00006E0E06840F0010394E80700984710340F
:1009E000AC42F6D3FFF786FB0055000820550008FF
:1009F0000EB540F2334102910021CDE900110A46C3
:100A00000B46FFF7FDFE03B000BD70B5C1F30A52FF
:100A100001F000450024C1F3130140F2FF3341F41B
:100A200080119A4201DA002070BD40F233439A42AD
:100A3000A2F2334203DC5242FFF774FB00E0904025
:100A40002C43F1D0404270BDFEE7704772B6FEE71E
:100A500010B590F821100024022903D004218163ED
:100A600001243DE001680A6822F00E020A60016874
:100A70000A6822F001020A601A4A0168914201D113
:100A8000012121E0174A1432914201D110211BE0CB
:100A9000144A2832914201D1891515E0114A3C329D
:100AA000914201D189140FE00E4A5032914202D195
:100AB0004FF4803108E00B4A6432914202D14FF486
:100AC000801101E04FF08071064A083A516001211F
:100AD00080F82110002180F82010416B01B1884777
:100AE000204610BD0800024090F821007047000029
:100AF00070B5044600F0EEF80546601C02D00448CC
:100B00000078044400F0E6F8401BA042FAD370BD20
:100B1000040000202DE9F84FDFF89C91002409F132
:100B2000040A0AF1040B23460F270BF1040EBBE065
:100B30000125A5402A40AA4276D1DFF880C14E683F
:100B4000A6EB0C0866452BD00DDC032E34D005DC5B
:100B500036B3012E19D0022E2FD11BE0112E16D044
:100B6000122E2AD119E0B8F5881F19D006DCB8F585
:100B7000803F15D0B8F5801F1FD111E0B8F5001FD8
:100B80000ED0B8F5041F18D10AE0CB6815E0CB6889
:100B90001B1D12E0CB6808330FE0CB680C330CE070
:100BA0008B682BB1012B4FF0080303D0456104E0A3
:100BB000042302E0056100E00023FF2A01D8064675
:100BC00001E000F104064FEA840501D9A5F12005F2
:100BD000D6F8008007FA05FC28EA0C0803FA05F5A8
:100BE00048EA0508C6F800804D68ED005BD5344D35
:100BF000AE6946F00106AE61AD6924F0030605F06A
:100C0000010500952F4D06EB050CDCF80850A607F2
:100C1000360F07FA06F825EA0805DFF8AC804045EC
:100C200003D14FF0000810E03DE0DFF8A080404520
:100C300002D14FF0010808E0DFF89480404502D16E
:100C40004FF0020801E04FF0030808FA06F848EAFE
:100C50000508CCF808804D68D9F80060ED034D46D2
:100C600001D5164300E096432E604D68DAF8006027
:100C7000AD03554601D5164300E096432E604D68FE
:100C8000DBF80060ED025D4601D5164300E09643B7
:100C90002E604D68DEF80060AD02754601D5164342
:100CA00000E096432E60641C0A6832FA04F57FF473
:100CB0003FAFBDE8F88F00000004014000001110B4
:100CC000001002400000014000080140000C0140FB
:100CD00000100140014880687047000004000020B7
:100CE000704770472DE9F047026800215368C66AD3
:100CF00090F83E4090F83D50102C12D0402C10D06F
:100D0000046C002C7DD05469E443A6077AD4DE43FA
:100D1000B60577D4036C03B19169BDE8F04701F0E3
:100D200051BE976951694FF42A0CC9435FEAC178F3
:100D30004FF02A4904D066452AD04E4528D010E00D
:100D4000DE43B6050DD4C16A614501D1012103E03E
:100D5000C16A494501D10821C162BDE8F04701F0EF
:100D6000C9BC0E0716D4DE43B60513D4416CC9B214
:100D70001161416B09B1896A29B9816B002907D0DA
:100D8000896A002904D00068416841F4006141602B
:100D9000BDE8F0878E0706D4DE43B60503D4BDE870
:100DA000F04701F0FBBBFE43526876074FEA025260
:100DB0001DD4002AECDB0A0608D4DA43520505D418
:100DC000490705D5BDE8F04701F08CBB4907DFD4E2
:100DD000D9438905DCD4212D05D0402CD8D1BDE8DC
:100DE000F04701F0CDBCBDE8F04701F039BB002A67
:100DF000CEDB4A060BD4DA43520508D4490708D59E
:100E000001E00DE00EE0BDE8F04701F0B5BA49079A
:100E1000BED4D9438905BBD4BDE8F04701F043BA3D
:100E2000916970E7E10606D4D943890503D4BDE88A
:100E3000F04701F0EBBD2821212D27D0292D25D009
:100E4000650655D4DD436D0552D4640752D590F83C
:100E50003D30448D002C9BD01269446A2270426A56
:100E6000521C4262428D521E4285428D002A8FD111
:100E70002A2B8DD10268536823F4806353602222A9
:100E8000026380F83D1000F011FB81E7250623D4B2
:100E9000DD436D0520D4640720D590F83D30448DA6
:100EA000002CF2D0446A24781461426A521C4262D7
:100EB000428D521E4285428D002AE6D1292BE4D173
:100EC0000268536823F4806353602122026380F830
:100ED0003D1000F0ECFA5BE76107D6D4D9438905F1
:100EE000D3D4418D0029D0D0416A097811610AE03C
:100EF0006107CAD4D9438905C7D4418D0029C4D01C
:100F00001169426A1170416A491C4162418D491E52
:100F100041853DE77047000070B5040025D094F886
:100F20003D00002520B984F83C50204600F07EFAB0
:100F3000242084F83D002068016821F0010101604F
:100F40002068016841F4004101602068016821F4D3
:100F50000041016000F0DAFB4D4A6168914201D81E
:100F60004C4900E04C49884201D2012070BD4B49F8
:100F70002368B0FBF1F15E6826F03F060E435E6029
:100F80006368934206D94FF4967359434FF47A73CA
:100F9000B1FBF3F12368491C1E6A26F03F0631437A
:100FA00019626168914210D84900401EB0FBF1F20D
:100FB000521CC2F30B02042A01D2042022E0B0FB2F
:100FC000F1F0401CC0F30B001CE0A268F2B301EB8F
:100FD000C10303EB0116431EB3FBF6F35B1C43F4A2
:100FE00080431B0549D092B301EBC10202EB011112
:100FF000401EB0FBF1F0401CC0F30B0040F48040F9
:1010000040F400402168CA694CF6FF739A431043CC
:10101000C861D4E9071001432068026822F0C002C9
:1010200011430160D4E9030101432068826848F25A
:10103000FF339A4311438160D4E9050108432168D5
:10104000CA6822F0FF021043C86001E00EE016E01B
:101050002068016841F0010101602564202084F8C6
:101060003D00256384F83E50002070BD01EB410631
:10107000431EB3FBF6F35B1CB3E70120C2E701EBB1
:101080004101401EB0FBF1F0401CC0F30B00B7E77C
:10109000A086010080841E0000093D0040420F0030
:1010A0007047704770477047704700002DE9FF4F49
:1010B00083B00025DDE910799A4693460446DDF8B1
:1010C00048800095FFF706FE064694F83D0020286C
:1010D0007CD11923012285492046009601F06AFD42
:1010E0000028F5D194F83C0001286FD0012084F845
:1010F0003C0020680168C90703D1016841F0010183
:1011000001602068016821F400610160222084F8F8
:101110003D00402084F83E0025646762A4F82A90D0
:10112000608D20857248E062CDE9008653465A46BC
:101130002046049901F074FB00287DD1208DDFF852
:10114000B491202768B1012814D0022820680168D2
:101150001ED041F48061016020684169806900907F
:10116000B6E02068416981690091016841F400712D
:101170000160ADE02068016821F48061016072B611
:101180002068416981690091016841F400710AE0B9
:1011900041F40061016072B6206841698169009183
:1011A000016821F48061016062B691E0032868D88B
:1011B00001280CD0022843464FF000024946204641
:1011C00000960FD001F0F6FCB0BB10E08BE0324689
:1011D0004146204601F06DFD70BB20680069616AE0
:1011E00008706CE001F0E6FC30BB72B634E02068B9
:1011F000016821F48061016072B620680069616A4B
:101200000870606A401C6062208D401E2085608DE1
:10121000401E6085384846F2A8110068B0FBF1F026
:10122000C0EBC00000EB80000090401E009008D092
:1012300020684069C04300E029E040070CD50098D1
:10124000F3E744F8305F6773A573206940F020002E
:10125000206162B625731AE02068016841F40071CC
:10126000016020680069616A0870606A401C606201
:10127000218D491E2185618D491E618562B62168D7
:101280001BE032464146204601F013FD18B1012013
:1012900007B0BDE8F08F20680069616A0870606A75
:1012A000401C6062218D491E2185618D491E61852A
:1012B00021684A69D24352070AD409690170606AF9
:1012C000401C6062208D401E2085608D401E608520
:1012D000208D00287FF46AAF84F83D7084F83E507A
:1012E00084F83C50D4E70220D2E70000020010004E
:1012F0000000FFFF04000100100000202DE9FF4F57
:1013000083B09A46DDE9119793460446DDF84080A4
:10131000FFF7E0FC054694F83D0020287FD1192313
:10132000012240492046009501F044FC002876D176
:1013300094F83C00012872D0012084F83C00206819
:101340000168C90703D1016841F00101016020680B
:10135000016821F400610160212084F83D004020F3
:1013600084F83E0000262664C4F82480A4F82A905D
:10137000608D20852C48E062CDE9007553465A46C1
:101380002046049901F0CAFA70B930E02A4639467D
:10139000204601F0C1FC58B1206C042804D120681B
:1013A000016841F400710160012007B0BDE8F08FD1
:1013B000606A216800780861606A401C6062218D63
:1013C000491E89B22185628D521E62852268536949
:1013D000DB435B070BD469B100781061606A401C85
:1013E0006062208D401E2085608D401E6085208DAE
:1013F0000028CBD12A463946204601F0B5FB00280B
:10140000CAD154F83D0B016841F4007101602020FD
:1014100004F81E09E67766770020C6E7FFE702209A
:10142000C3E70000020010000000FFFF10B586B007
:1014300000210091019102910391006817498842AF
:101440002AD1174CA06940F00800A061A069694644
:1014500000F0080004904FF44070009012200190BA
:10146000032003900F48FFF755FB0F48416841F0F8
:10147000E06141F002014160E06940F40010E06188
:10148000E069002200F40010049011461F2000F0D3
:1014900075F81F2000F064F806B010BD005400403D
:1014A00000100240000C01400000014070477047EE
:1014B000024881680278114481607047040000206E
:1014C000074810B5016841F010010160032000F0E9
:1014D00075F80F2000F006F800F024F8002010BD89
:1014E0000020024070B50D4D04464FF47A71287803
:1014F000B1FBF0F00A490968B1FBF0F000F0ECFA3A
:1015000048B9102C07D200222146501E00F036F8B0
:1015100000206C6070BD012070BD00000400002040
:10152000100000200C4808B5816941F0010181617B
:10153000816901F001010091C16941F08051C161EF
:10154000C06900F0805000900448416821F0E061DB
:1015500041F00071416008BD0010024000000140F0
:10156000002809DB00F01F020121914040098000A2
:1015700000F1E020C0F8001170470000F0B40E4BFD
:101580001B680C46C3F30223C3F10705042D00D9E1
:101590000425191D072901D2002300E0DB1E0126C6
:1015A00006FA05F1491E214099409E40761E1640DC
:1015B0003143F0BC01F09CBF0CED00E0064900F0A7
:1015C000070208684FF6FF03184040EA0220034A6A
:1015D00010430860704700000CED00E00000FA05C1
:1015E0002DE9F0470F46050061D0434E306800F00A
:1015F0000700B84209D2306820F007003843306055
:10160000306800F00700B84251D128683B4C810790
:1016100012D5400703D5606840F4E0606060287828
:10162000000703D5606840F4605060606068A96896
:1016300020F0F000084360602878C00728D0686870
:10164000012810D02168022810D0890700292EDA3D
:10165000616821F0030101436160FFF73BFB8046B5
:1016600041F288390DE021688903EFE78901EDE750
:10167000FFF730FBA0EB0801494502D90320BDE884
:10168000F0876068696800F00C00B0EB810FEFD163
:10169000306800F00700B8420BD9306820F007002E
:1016A00038433060306800F00700B84201D00120B4
:1016B000E5E72878400705D56068E96820F4E06030
:1016C000084360602878000706D56068296920F41F
:1016D000605040EAC100606000F038F86168084A74
:1016E000C1F30311515CC840064908600648006810
:1016F000FFF7F8FE0020C2E7002002400010024081
:101700009C520008100000200800002004480549F1
:1017100000684968044AC1F30221515CC84070471F
:101720001000002000100240AC5200080448054997
:1017300000684968044AC1F3C221515CC84070473F
:101740001000002000100240AC52000812A185B029
:101750000FC98DE80F0014A0144A00680490516866
:10176000134801F00C03042B10D0082B0ED1C1F349
:101770008343C9031DF803000AD5516804AAC1F3C5
:101780004041515C0A4A5043B0FBF1F005B070474C
:1017900008494843FAE70000020304050607080960
:1017A0000A0B0C0D0E0F1010010200000010024079
:1017B00000127A0000093D002DE9F84F040070D0B6
:1017C0002078C04DC00749D06868C0F38100012867
:1017D00007D06868C0F38100022809D16868C00397
:1017E00006D52868800339D560680028E7D035E041
:1017F0006068B0F5803F0BD010B1B0F5A02F11D0CC
:10180000286820F480302860286820F4802002E0D6
:10181000286840F480302860606890B1FFF75AFA79
:1018200006460AE0286840F480202860F0E700BF00
:10183000FFF750FA801B642873D828688003F7D517
:101840000CE0FFF747FA064605E000BFFFF742FA53
:10185000801B6428F0D828688003F7D420789A4E3B
:1018600080074FF001094FF0000839D5686810F083
:101870000C0F07D06868C0F38100022809D168689E
:10188000C00306D42868800714D52069012808D130
:1018900010E02069B0B1C6F80090FFF71BFA0746C8
:1018A00005E00AE1FFF716FAC01B0228C4D8286831
:1018B0008007F7D52868616920F0F80040EAC10088
:1018C00028600DE0C6F80080FFF704FA074604E040
:1018D000FFF700FAC01B022823D828688007F7D436
:1018E000207800072CD57948A169D9B1C0F80090BB
:1018F000FFF7F0F9074604E0FFF7ECF9C01B0228F8
:101900000FD8686A8007F7D571484FF4FA5100681C
:10191000B0FBF1F0009000BF0098411E0091FAD298
:101920000EE080E0C0F80080FFF7D4F9074604E03D
:10193000FFF7D0F9C01B022875D8686A8007F7D472
:101940002078400760D5E8690027C00008D4E8691E
:1019500040F08050E861E869012700F08050009075
:101960005C480168C90513D40168834641F480715D
:101970000160FFF7AFF9824606E000BFFFF7AAF962
:10198000A0EB0A0064284ED8DBF80000C005F5D5AE
:10199000E06801280AD008B1052813D0286A20F091
:1019A00001002862286A20F0040002E0286A40F062
:1019B00001002862E06841F2883B98B1FFF78AF99C
:1019C00082460BE0286A40F004002862EEE700BF80
:1019D000FFF780F9A0EB0A0159455AD8286A800719
:1019E000F6D50CE0FFF776F9824605E0FFF772F9CD
:1019F000A0EB0A0159454CD8286A8007F6D41FB1DC
:101A0000E86920F08050E861E06988B36968C1F353
:101A10008101022944D00228C6F8608004D0FFF773
:101A200059F9044638E034E0FFF754F9074604E07A
:101A3000FFF750F9C01B02282BD828688001F7D483
:101A4000206AB0F5803F05D16868A16820F40030B5
:101A500008436860D4E908010843696821F47411F7
:101A600008436860C6F86090FFF734F9044606E062
:101A700025E000BFFFF72EF9001B022809D82868CF
:101A80008001F7D51BE000BFFFF724F9001B0228F7
:101A900002D90320BDE8F88F28688001F4D40EE055
:101AA0000128F7D06868226A00F48031914204D19D
:101AB000616A00F47010884201D00120EAE700203A
:101AC000E8E7000000100240000042428004424269
:101AD000100000200070004010B5401EB0F1807F63
:101AE00001D3012010BD4FF0E02460610F21601789
:101AF00001F0FEFC0020A06107202061002010BD45
:101B00007047704770B590F83C20012A23D001241B
:101B100080F83C40022280F83D2003685A689D68A6
:101B200022F070060A6832435A600C4B02689A42EF
:101B300005D0B2F1804F02D0094B9A4204D14968D6
:101B400025F080031943916080F83D40002180F822
:101B50003C10084670BD022070BD0000002C014002
:101B60000004004010B5040003D094F83D0010B10B
:101B700007E0012010BD002084F83C00204600F062
:101B80001FF8022084F83D00211D206801F098FB19
:101B9000012084F8460084F83E0084F83F0084F871
:101BA000400084F8410084F8420084F8430084F83F
:101BB000440084F8450084F83D00002010BD00007A
:101BC00008B500680B49884212D10B48816941F47D
:101BD000006181618069002200F40060009011467C
:101BE0001920FFF7CBFCBDE808401920FFF7B8BC6F
:101BF00008BD0000002C01400010024090F83D108C
:101C0000012901D001207047022180F83D100168B0
:101C1000CA6842F00102CA6000680A49884205D0D9
:101C2000B0F1804F02D00849884204D1816801F0A8
:101C30000701062903D0016841F00101016000207D
:101C400070470000002C01400004004001680A6A4F
:101C500041F211131A4207D10A6A9B101A4203D1AA
:101C60000A6822F001020A60012180F83D1000207C
:101C7000704770B5044690F83C00012817D0012544
:101C800084F83C50022084F83D002068826822F0ED
:101C9000770222F47F4282600868502830D00DDC41
:101CA00020284DD005DC98B310283BD148E0022015
:101CB00070BD302844D0402834D139E0602828D085
:101CC000702806D0B0F5805F2CD0B0F5005F29D128
:101CD0000AE0CB68D1E90121206801F01FFB2068F0
:101CE000816841F0770109E0CB68D1E901212068E2
:101CF00001F014FB2068816841F48041816011E0AB
:101D0000CA684968206801F01BFB5021206807E081
:101D100016E0CA684968206801F023FB602120684A
:101D200001F006FB84F83D50002084F83C0070BDB3
:101D3000CA684968206801F003FB40212068EFE78A
:101D4000226801461046EBE7704770B5044600680C
:101D500001694FF00005C943890715D4C168C9431B
:101D6000890711D4E91E016101202077206880696C
:101D70008007204602D0FFF7E7FF04E000F098F864
:101D8000204600F096F8257720680169C943490785
:101D900017D4C168C943490713D46FF00401016126
:101DA000022020772068806910F4407F204602D00E
:101DB000FFF7CAFF04E000F07BF8204600F079F856
:101DC000257720680169C943090716D4C168C9434A
:101DD000090712D46FF00801016104202077206800
:101DE000C0698007204602D0FFF7AEFF04E000F094
:101DF0005FF8204600F05DF8257720680169C94347
:101E0000C90617D4C168C943C90613D46FF01001BD
:101E10000161082020772068C06910F4407F2046C7
:101E200002D0FFF791FF04E000F042F8204600F0F6
:101E300040F8257720680169C943C90708D1C168FE
:101E4000C943C90704D1891E0161204600F032F858
:101E500020680169C943090609D4C168C943090654
:101E600005D46FF0800101612046FFF749FE20682C
:101E70000169C943490609D4C168C943490605D463
:101E80006FF040010161204600F022F820680169EE
:101E9000C94389060BD4C168C943890607D46FF0CA
:101EA000200101612046BDE87040FFF72ABE70BDE9
:101EB0007047704700680449884203D10349088885
:101EC000401C088070470000002C014000000020EA
:101ED000704770B5040004D094F83D00002510B19F
:101EE00006E0012070BD84F83C50204600F022F846
:101EF000242084F83D002068C16821F40051C160AD
:101F0000204601F041FA2068016921F49041016105
:101F10002068416921F02A0141612068C16841F4CB
:101F20000051C1602564202084F83D0084F83E0003
:101F3000002070BD30B585B0002400940194029457
:101F4000039400681449884224D11448816941F4FB
:101F500080418161816901F480410491816941F08E
:101F60000401816180690E4D00F0040004904FF47B
:101F700000700090022001900320039069462846DB
:101F8000FEF7C8FD2815CDE90004694628460294ED
:101F9000FEF7C0FD05B030BD003801400010024022
:101FA000000801402DE9F843044690F83D001F4623
:101FB00016460D4620284CD1C5B1BEB194F83C0060
:101FC000012846D0012084F83C004FF00008C4F8F6
:101FD0004080212084F83D00FEF77CFEA6848146E7
:101FE000E684A068B0F5805F03D004E00120BDE87E
:101FF000F883206928B12E465FF0000584F83C8004
:102000000EE00026FAE78021204601F019FAA0B977
:10201000AEB116F8010B21684860E08C401EE084E8
:10202000E08C4B464FF0000200970028EBD14FF0B8
:102030004001204601F004FA30B10320D7E735F81B
:10204000020BC0F30800E6E7202084F83D000020E2
:10205000CDE70220CBE7FEE70148FEF743BE0000D4
:102060007000002038B5406A002190F83D202B4BCD
:1020700046F2A8141B68B3FBF4F3C3EBC30303EBF2
:10208000830300933BB15B1E009303681B689B05B1
:1020900005D5009BF6E7036C43F020030364436B14
:1020A00003B19962836B03B1996203681C6824F4DD
:1020B00080641C604185436B03B15963836B03B13A
:1020C000596303681C6824F001041C6090F83D40CB
:1020D0002023602C0BD0282434EA02020FD080F891
:1020E0003D3080F83E1000BFFEF714FF38BD80F889
:1020F0003D3080F83E100164FEF7F2FD38BD026805
:10210000136843F0010313600268136843F48063AB
:102110001360016380F83D40E6E7000010000020F6
:1021200070B5044690F83D0094F83E10102901D097
:10213000402906D1222804D121680A6822F40062CD
:102140000A60282131EA00024FF000054FF0200616
:1021500026D021684968090505D4602803D084F891
:102160003D6084F83E50256320684168090537D5F5
:10217000416821F400614160606B3D4990F8212085
:10218000012A11D04163606BFEF762FC38B320680E
:10219000016821F00101016084F83D60606B1CE082
:1021A000256384F83D10DFE7A06B4163A06BFEF769
:1021B0004FFCA0B120684169C943490605D40069B4
:1021C000616A0870606A401C60622068016821F0E2
:1021D0000101016084F83D60A06B416B884710E00D
:1021E00094F83D10602910D04169C943490605D4CF
:1021F0000069616A0870606A401C60622046FEF7F0
:1022000089FE206CC1071CD115E084F83D6025646F
:102210004169C943490605D40069616A0870606A6A
:10222000401C60622068016821F0010101602046C5
:10223000FEF756FDE5E7810703D4410701D4000707
:1022400004D52068416821F4E061416094F83D00C4
:10225000216C49070BD5282809D10648E06225637F
:1022600084F83D6084F83E502046FEF719FF70BDAB
:10227000652000080000FFFF01684A69D24352054B
:102280000FD46FF480624A61002140F8301F202291
:1022900042738173026942F00402026101730120FA
:1022A00070470020704710B5C26A438D0168042B47
:1022B00006D0438D032B08D0438D022B1DD012E096
:1022C0004A6822F480624A600CE04B6823F4806321
:1022D0004B60042A06D0022A04D001680A6822F45E
:1022E00080620A6001680969426A1170416A491C8A
:1022F0004162418D491E418510BD012A30D0102A0E
:102300002ED0042A30D0022A2ED00A6842F400725D
:102310000A6001680969426A1170416A491C416298
:10232000428D521E4285026812690A70416A491C38
:102330004162418D491E418501684A6822F440721C
:102340004A60202180F83D1090F83E200021402A6C
:1023500080F83E100CD012210163FEF7A2FE10BDE2
:102360000A6822F48062D3E70A6842F48062CFE709
:102370000163FEF798FE10BD38B590F83D10222994
:1023800014D1418D032912D901680969426A11707B
:10239000416A491C4162418D491E4185418D032995
:1023A00004D10068416821F48061416038BDC26A8F
:1023B000022AFBD0012901D00029F7D1274946F292
:1023C000A81300220968B1FBF3F101EB8101009130
:1023D00001682023009C641E009422D00C68A40590
:1023E000F8D40C6824F480640C6001684C6824F410
:1023F000E0644C6001680969446A2170416A491CC3
:102400004162418D491E418580F83D3090F83E1073
:1024100080F83E2040291DD012210163FEF741FEC5
:1024200038BD046C44F0200404644C6824F4E06477
:102430004C6001680969446A2170416A491C416223
:10244000418D491E418580F83D3080F83E20FEF7E1
:1024500061FD38BD0263FEF726FE38BD1000002086
:1024600010B5C26A90F83D1021290BD1418D51B1B0
:10247000416A026809781161416A491C4162418DD3
:10248000491E418510BD20230021082A13D0202A8F
:1024900011D012F5803F0ED00268546824F4E06435
:1024A00054601122026380F83E1080F83D3000BF76
:1024B000FEF7F8FD10BD0268546824F4E06454602F
:1024C0000268146844F400741460016380F83D30BD
:1024D00090F83E2080F83E10402AE9D1FEF7E4FD56
:1024E00010BD000010B590F83D1090F83E30C26A63
:1024F000048DB4B1212903D0402B11D122290FD151
:10250000418DE1B390F83E10402942D0416A026803
:1025100009781161416A491C4162418D491E41851A
:1025200010BD2129E8D120230021082A13D0202A18
:1025300011D012F5803F0ED00268546824F4E06494
:1025400054601122026380F83E1080F83D3000BFD5
:10255000FEF7A8FD10BD0268546824F4E0645460DE
:102560000268146844F400741460016380F83D301C
:1025700090F83E2080F83E10402AE9D100E002E0C9
:10258000FEF792FD10BD0068416821F48061416052
:1025900010BDBDE8104000F0F3B8000078B590F829
:1025A0003E50C26A046B90F83D6000230168222E01
:1025B00073D1066D0EB9402D6FD0056D1DB905693B
:1025C000B5F5404F1BD0458D95B3468D484D012E36
:1025D00020D0448D022C4DD00C6844F480640C60F3
:1025E00001684C68240579D5AA4273D0012A71D0BC
:1025F000082A6FD0102A6DD0202A6BD06EE04A696D
:102600008A6900920A6842F480720A60016D491C6E
:10261000016578BDAA4214D10A6822F480620A607A
:1026200001684A68120504D50A6822F4806217E03E
:10263000FFE74A698A6900920A6842F400720A60F8
:1026400050E0082A10D0202A0ED0122C0AD0042ADA
:1026500003D0022A01D0102AE6D10A6842F480622F
:102660000A603BE0012ADFD00A6822F480620A6037
:102670000168DEE7042A11D0022A0FD0102A0DD0FB
:102680000C6844F400640C6001684C698C69009427
:102690000C6824F480640C6008E025E00C6844F4C5
:1026A00080640C6001684C698969009101684C681C
:1026B000240517D5AA4207D0012A05D0082A03D03D
:1026C000102A01D0202A0DD14A6842F480524A6073
:1026D00008E0FFE74A6842F480524A6001684A69AC
:1026E00089690091036578BD48698869009078BD63
:1026F0000000FFFF90F83E10402910D00169B1F5AD
:10270000804F19D0016DA9B3016D012910D1416C21
:102710005FF0F10201F4407142EAD11106E0016D6F
:102720000029416C05D0C9B241F001010068016186
:10273000704701F0FE01F9E790F83D102129416C46
:1027400009D0C9B241F0010102681161416B29B1A0
:10275000896A49B902E001F0FE01F5E7816B0029C1
:10276000E6D0896A0029E3D00068416841F400613D
:1027700041607047FFE7416CF02201F44071CBE704
:1027800010B590F83D10026D22B3026D012A2FD0D2
:10279000026D022A1DD122292FD0428D0AB1212992
:1027A00033D0428D002A14D1212912D101684A6800
:1027B00022F4E0624A6001680A6842F400720A602A
:1027C00000210163202280F83D2080F83E10FEF7B2
:1027D0006BFC10BDC16C0129816C02D0C1F30721D3
:1027E00008E00268C9B21161016D891C016510BD64
:1027F000816CC9B20268116104E001680A6842F4A0
:1028000080720A60016D491CF0E7416A026809782C
:102810001161416A491C4162418D491E418510BDCB
:102820002DE9F84F0446006889460B9D01689846DB
:10283000174641F4806101602068016841F48071AD
:10284000016000954FF0011B0022594620460A9B6B
:1028500000F0B0F94FF4007A40B120680068C0057C
:1028600001D5C4F840A00320BDE8F88F216809F025
:10287000FE0008612B46284920460A9A00F0CEF94E
:10288000F0BB20684169806900902A4620460A9979
:1028900000F042FA40B1206C04283AD12068016867
:1028A00041F40071016034E0FEB2B8F1010F09D0CB
:1028B0002168380A08612A4620460A9900F02CFA55
:1028C0000028E8D1206806612A4620460A9900F0CF
:1028D00023FA0028DFD12068016841F4807101608B
:1028E00000950022594620460A9B00F063F9002813
:1028F000B3D1216809F0FF0040F00100086100E059
:1029000007E02B46044920460A9A00F087F9002880
:10291000AAD00120A8E70000020001002DE9F84339
:10292000044600680D46DDE908970168984616469A
:1029300041F4807101604B4600224FF001112046A6
:10294000009700F037F948B120680068C00502D54B
:102950004FF4007020640320BDE8F883216805F07F
:10296000FE0008613B464A461549204600F056F9EC
:1029700088B920684169806900903A4649462046F6
:1029800000F0CAF948B1206C042804D1206801681D
:1029900041F4007101600120DEE7F5B2B8F1010FEA
:1029A00009D02168300A08613A464946204600F0BD
:1029B000B3F90028E7D1206805610020CCE70000CA
:1029C0000200010038B50C4690F83D200021282572
:1029D000954302680B4605D051699169009180F8D2
:1029E0003C3038BD556825F480655560E243540796
:1029F00000D50121120601D5828900E0028B80F802
:102A00003C3092B2FEF76DF938BD0000F8B590F891
:102A10003D6004460068416821F4E061416020683F
:102A2000002541690091016841F0010101602068C1
:102A3000016821F48061016020684168090520D5A2
:102A4000474F222E48D02A2E46D0616B096849682C
:102A50006185618D19B1216C41F0040121644168E7
:102A600021F400614160606BFEF73EF8012808D058
:102A7000606B4763606BFDF7EBFF10B1606B416B00
:102A80008847608D08B320684169C943490708D465
:102A90000069616A0870606A401C6062608D401E57
:102AA000608520684169C943490608D40069616AA4
:102AB0000870606A401C6062608D401E6085608D99
:102AC00018B1206C40F004002064206C00B3204654
:102AD000BDE8F840FFF724BBA16B09684968618530
:102AE000618D19B1216C41F004012164416821F428
:102AF00000614160A06BFDF7F7FF0128C1D0A06B1A
:102B00004763A06BFDF7A4FF0028BAD0A06BB6E71F
:102B10002A2E06D12563282084F83D002046FEF7A2
:102B2000C5FC94F83D10202028290DD0216B2229C6
:102B300001D0222E07D1256384F83D0084F83E5051
:102B40002046FEF7B3FCF8BD0649E162256384F830
:102B50003D0084F83E502046FEF7A2FAF8BD000082
:102B6000652000080000FFFF70B516460D460446BC
:102B70000DE02046FFF780FB08B1012070BD681C06
:102B800005D0FEF7A7F8801BA84207D835B120680A
:102B90004069C0434007ECD4002070BD002044F8D9
:102BA000300F20216173A073216941F02001216160
:102BB0002073E2E72DE9F0471E4690460D46044695
:102BC000C1F30747DDF8209008E0701C06D0FEF73F
:102BD00081F8A0EB0900B0420FD876B12068012F30
:102BE00018D0806925EA00000004000C14D00021F0
:102BF0004145EAD00020BDE8F087002044F8300FBE
:102C000020216173A073216941F0200121612073AB
:102C10000120F0E74069E5E70121E9E72DE9F04708
:102C20009A4691460E46044600254FF02008C1F30F
:102C3000074725E020684069C043400514D4206858
:102C4000016841F40071016021686FF4806048619F
:102C5000256384F83D8084F83E50206C40F00400E9
:102C6000206484F83C501FE0B9F1FF3F08D0FEF724
:102C700031F8A0EB0A0149450CD8B9F1000F09D091
:102C80002068012F13D0806926EA00000004000CA0
:102C90000BD0CFE744F8305F84F80D80A57320692E
:102CA00040F02000206125730120BDE8F0874069D5
:102CB000EAE72DE9F041002590460E46044620271C
:102CC00017E04069C043C0060CD454F8301B6FF0C5
:102CD0001000486144F810596777A577206A206290
:102CE000257717E0FDF7F6FFA0EB0800B04208D803
:102CF0003EB120684169C9434906E2D40020BDE8DD
:102D0000F08144F8305F6773A573206940F02000BC
:102D1000206125730120F2E770B516460D46044682
:102D20000DE02046FFF7A8FA08B1012070BD681C2D
:102D300005D0FDF7CFFF801BA84207D835B120682A
:102D40004069C0430006ECD4002070BD002044F868
:102D5000300F20216173A073216941F020012161AE
:102D60002073E2E72DE9F14F96B0B148FEF746FF38
:102D700011A800F07FF90FA800F068F9BDF9440030
:102D8000FDF742FC1590BDF94600FDF73DFC0B90A8
:102D9000BDF94800FDF738FC0446BDF93C00FDF7DD
:102DA00033FC0D90BDF93E00FDF72EFC8146BDF9C8
:102DB0004000FDF729FC80462046FDF744FC9D4C71
:102DC000074603910D46206AFDF73DFC01F050FCDB
:102DD00006468B46E069FDF736FC01F049FC824669
:102DE0000191206AFDF72FFC02F0E2F95246019BA7
:102DF000FDF729FB32465B46FDF797FB2B463A462B
:102E0000FDF721FB069009910B98FDF71CFC054688
:102E100001910E46206AFDF716FC01F029FC83465D
:102E20000591E069FDF70FFC02F0C2F982460491BA
:102E3000206AFDF708FC02F0BBF95246049BFDF73F
:102E400002FB5A46059BFDF770FB33462A46FDF709
:102E5000FAFA06468A461598FDF7F5FB32465346C0
:102E6000FDF74AFA099B069AFDF746FAFDF7FEFBC5
:102E70002060039EE069FDF7E6FB02F099F93A460F
:102E80003346FDF7E0FA8A46019906462F460D467D
:102E9000E069FDF7D8FB01F0EBFB3A462B46FDF766
:102EA000D2FA32465346FDF7C8FAFDF7DFFB054676
:102EB0006060A06821680646FDF7AEF9E169FDF79C
:102EC00053F9E06029463046FDF7A6F9216AFDF77F
:102ED0004BF904F13406206104F1240531682868B7
:102EE000FDF742F92860074671686868FDF73CF90C
:102EF0006860B168A868FDF737F9A860F168E8680C
:102F0000FDF732F904F1440BE86082463846DBF8FD
:102F10000010FDF729F901463846FDF7AFF9464E96
:102F20000027C6E90007B7605046DBF80C10FDF734
:102F30001BF901465046FDF7A1F9F06041464846AD
:102F4000FDF79CF9FDF77FFB01F082FA3B4A3C4B11
:102F5000FDF779FAFDF78AFB60614046FDF773FBE8
:102F60004FF0804B00225B4601F036FC80468A46DB
:102F70004846FDF768FB00225B4601F02DFC424607
:102F80005346FDF7B9F902F063F9804689460D987A
:102F9000FDF759FB42464B46FDF7C7FA01F058FAD8
:102FA000264A284BFDF74FFAFDF760FBA061E16868
:102FB00080468A466069FDF729F9D6F800904946AF
:102FC000FDF72AF95146FDF7CFF8E0612169404647
:102FD0008A46FDF71BF9F6683146FDF71DF95146A3
:102FE000FDF7C2F84FF07E58206249464046FDF793
:102FF0000DF92968FDF710F9C5E90007314640468B
:10300000AF60FDF703F9E968FDF706F9E86001F044
:103010007DFB0D49B0FBF1F0FDF7FFFAA0601698BB
:10302000E16901601698216A416017B0BDE8F08F30
:10303000080100201400002050010020CB67791EF9
:10304000DCA54C40DCA54CC040420F001CB504463A
:10305000062269463B2000F03FF8BDF8000040BA68
:103060002080BDF8020040BA6080BDF8040040BA7C
:10307000A0801CBD1CB5044606226946432000F012
:103080002BF8BDF8000040BA2080BDF8020040BA1D
:103090006080BDF8040040BAA0801CBD10B564205B
:1030A000FDF726FD00216B2000F024F807211920F0
:1030B00000F020F806211A2000F01CF801211C2045
:1030C00000F018F818211B2000F014F8BDE810409B
:1030D000C820FDF70DBD00000EB54FF47A738DE8E2
:1030E0000E0002460123D0210148FDF7DFFF0EBD8F
:1030F0007000002003B583B04FF47A73012204A955
:103100008DE80E0013460246D0210248FEF7F6F87D
:1031100005B000BD70000020114808B5816941F07C
:1031200010018161816901F010010091816941F014
:1031300020018161816901F020010091816941F0E4
:1031400004018161816901F004010091816941F00C
:1031500008018161806900F00800009008BD00004E
:10316000001002400D4810B50B4901600C49416048
:1031700000214FF480428160C0E903124161816106
:10318000C1610162FDF7C8FE002803D0BDE8104010
:10319000FDF75CBC10BD0000005400407000002032
:1031A000A086010010B586B0002418480094019450
:1031B0000294039404941449059401604721C0E9E2
:1031C000011440F2E731C0E903148021C0E9054150
:1031D000FEF7C8FC08B1FDF739FC4FF480500090B1
:1031E00069460A48FEF745FD08B1FDF72FFC049437
:1031F00004A906480594FEF785FC002801D0FDF7D8
:1032000025FC06B010BD0000002C01400801002084
:103210000C4810B50A4901604FF4E13141600021CA
:1032200081600C22C160C0E904128161C161FEF7B6
:1032300050FE002803D0BDE81040FDF707BC10BDCC
:1032400000380140C4000020FEE7FEE770477047E9
:10325000FEF72EB930B58FB028216846FCF779FF0C
:1032600014210AA8FCF775FF01210804CDE900101C
:103270000024029402250491CDE907504FF4E01098
:1032800009906846FEF798FA08B172B6FEE70F207B
:10329000CDE90A054FF48060CDE90C4002210AA86F
:1032A0000E94FEF79DF9002801D072B6FEE70FB02C
:1032B00030BD70470148FEF748BD000008010020FE
:1032C00070B50268134B144C4FF08046984203D0FF
:1032D000B04201D0A04203D122F070054A682A43CF
:1032E000984203D0B04201D0A04203D122F44074EE
:1032F000CA6822434C6922F08002224302608A6835
:10330000C2620A688262984201D10969016301219F
:10331000416170BD002C01400004004010B584687C
:1033200042EA032224F47F440A432243826010BD10
:10333000826822F070020A4342F007018160704700
:1033400010B5036A046A24F001040462846924F05D
:10335000F00444EA021423F00A020A438461026280
:1033600010BD10B5036A23F0100303628369046A79
:1033700023F4704343EA023224F0A00343EA01112C
:103380008261016210BD000070B5044600680169E9
:10339000E26821F44051114301612169A0680843AA
:1033A000616908432168CA6841F20C639A43024389
:1033B000CA6020684169A26921F4407111434161EA
:1033C0001E492068884202D1FEF7B0F901E0FEF7FD
:1033D0009DF900EBC00101EB0012606864218000E0
:1033E000B2FBF0F3B3FBF1F36FF018067343B2FBDB
:1033F000F0F5B2FBF0F605EB8305322303EB051580
:10340000B5FBF1F5B6FBF1F605F0F00505EB061599
:10341000B2FBF0F6B2FBF0F0B0FBF1F06FF0180287
:10342000504306EB800003EB0010B0FBF1F0216885
:1034300000F00F002844886070BD00000038014093
:103440002DE9F041984617460E460446069D1DE0BC
:10345000681C1BD02DB1FDF73DFCA0EB0800A84275
:1034600014D92068C16821F4D071C1602068416915
:1034700021F001014161202084F83D0084F83E00E4
:10348000002084F83C000320BDE8F081206800683B
:1034900036EA000004D00020B842D9D00020F3E77B
:1034A0000120F9E7FEE700000FB4054B10B503A9B2
:1034B000044A029800F034FC10BC5DF814FB0000D4
:1034C0004147000868000020490050EAC12018BFA9
:1034D00004204A0D18BF40F0010040F2FF72B2EB29
:1034E000515F08BF40F00200012808BF0520704767
:1034F0000907090E002804DB00F1E02080F8001421
:10350000704700F00F0000F1E02080F8141D7047B4
:103510002DE9F74F144694B00021C4E90211159922
:10352000079121F00045C9498D4206DC1599C4E98F
:10353000000117B00020BDE8F08FC549DFF814A3E3
:10354000A9423CDD0799C44E0029C44FC44A1599CD
:10355000534619DDFCF771FF554506D0C14AC24BF1
:10356000FCF76BFFC4E900010AE04FF0D352BE4BF9
:10357000FCF763FF32463B46FCF75FFFC4E90001FE
:1035800017B00120BDE8F08FFCF7B6FE554506D018
:10359000B44AB54BFCF7B0FEC4E900010AE04FF0B5
:1035A000D352B14BFCF7A8FE32463B46FCF7A4FED3
:1035B000C4E9000117B04FF0FF30BDE8F08FAB4910
:1035C000A942159978DB21F0004183468846A84A34
:1035D000A84BFCF738FF0022A74BFCF78DFEFDF748
:1035E00014FA0990FDF71EF806460F469C4A53460A
:1035F000FCF729FF43465A46FCF722FF80468A46DD
:10360000984A994B30463946FCF71DFF2A0D012593
:103610000B9242465346FCF713FF032DC4E9000109
:1036200039D00B98C1F30A51401A05EB45111139F5
:10363000814230DA9148C346784400EB0510CDF85A
:103640000CA00C90D0E9002330463946FCF7FBFE75
:1036500002460B460491069058460399FCF7EDFE8E
:1036600080468A4602460B4658460399FCF7E5FE1B
:10367000049B069AFCF7E1FE83460C9803913946B9
:10368000D0E902233046FCF7DEFE5A46039BFCF7E6
:10369000D4FE6D1CBDE707980028A2BF099817B09B
:1036A000BDE8F08F616881F000416160099817B052
:1036B0004042BDE8F08FFFE784461598C1F313013F
:1036C000C0F30A50A0F2F5304FEA601800F01F0670
:1036D000C6F12000139000200690079041F4801E50
:1036E00005206D4676B1664A08EB00017A4452F82F
:1036F000213002EB8101B3404A68139922FA01F1AB
:10370000194305E05F4908EB0002794451F82210A3
:10371000A1FB0E27A1FB0C131A449A4234BF0123CC
:10372000002303EB070A05EB8003D3E901B70F443D
:103730008F4234BF0121002193448B4411B1934542
:1037400002D903E0934501D2012100E00021C3E941
:1037500001B7514445F82010011EA0F10100C1DC61
:103760000298059F00F10050800F12900298DDE949
:1037700003568000FCF756FF834628460D91FDF75F
:1037800037F96FF01D02FDF789F8CDE90E013046DB
:10379000FDF72EF96FF03D02FDF780F880468A466E
:1037A0003846FDF725F96FF05D02FDF777F807461B
:1037B000424653461191FCF79FFDDDE90E23FCF7CD
:1037C0009BFD5A460D9BFCF797FD00250E465A4679
:1037D00028460D9BFCF731FEDDE90E23FCF72DFE9C
:1037E00042465346FCF729FE3A46119BFCF728FE59
:1037F000DFF898A0244A5346FCF725FE0746884682
:10380000234A244B31462846FCF71DFE3A464346E0
:10381000FCF772FD074688464FF0A84253463146F2
:103820002846FCF710FE3A464346FCF765FD159A1C
:1038300012F0004F04D0129A81F0004152421292CD
:10384000C4E90001129817B0BDE8F08FFB21E93FF1
:103850007CD90240FB21F93F7370032E8A19A33BE8
:10386000000040543163621A61B4D03DFB213941FC
:1038700083C8C96D305FE43F0000E03FD41D000005
:10388000501D0000321D0000182D4454FB21F93D4D
:103890003326A611460B113C2DE9FF4D21F00048BF
:1038A00007460C46B8F1795F08DAFDF7AEF8002854
:1038B00001BF0020324904B0BDE8F08D3A462346EE
:1038C00010461946FCF7BFFD054602462D480E4638
:1038D0000B460621784400F05DF82A463346FCF793
:1038E000B2FDDDE9022382468B4638462146FCF7CD
:1038F000AAFD04460F4652465B4628463146FCF771
:10390000A2FD22463B46FCF798FD07468A464FF04B
:10391000FF3228463146FCF7C1FF1B4A90450ADAC0
:103920003A465346FCF789FD04B00022BDE8F04D4D
:10393000134BFCF785BD154A4245A8BFA8F50015F5
:103940004FF00004B8BF124D22462B46FCF775FD20
:103950000646884622462B4600200949FCF76DFDA5
:1039600004460D463A46534630464146FCF765FD4F
:1039700004B022462B46BDE8F04DFCF761BD0000C7
:103980000000F03F001B00003333D33F0000E93F4D
:103990000000D23F2DE9F0414F1E00EBC701044665
:1039A000D1E9000115461E4637F006020DD02A4621
:1039B0003346FCF748FD7F1E04EBC703D3E9002321
:1039C000FCF79AFC37F00602F1D1022F25D0042F24
:1039D00013D0062F18BFBDE8F0812A463346FCF706
:1039E00032FDD4E90A23FCF787FC2A463346FCF76C
:1039F0002AFDD4E90823FCF77FFC2A463346FCF76E
:103A000022FDD4E90623FCF777FC2A463346FCF76F
:103A10001AFDD4E90423FCF76FFC2A463346FCF771
:103A200012FDD4E90223FCF767FC2A463346FCF773
:103A30000AFDD4E90023BDE8F041FCF75DBC0000BD
:103A40002DE9FF4D054621F0004084B00C46B0F151
:103A5000795F0BDA2846FFF737FD042808BF00F02E
:103A60007FF8284608B02146BDE8F08D2A460B466F
:103A70001046FCF7E8FC06460F462A462346FCF7AC
:103A8000E2FC804626488A4632463B460521784479
:103A9000FFF780FF83461098029160B3214A224BC2
:103AA00040465146FCF7CFFCCDE900015A4640465E
:103AB0005146029BFCF7C7FC82468846DDE90601B9
:103AC0004FF0FF32FCF7EAFE52464346FCF7B5FCE6
:103AD00032463B46FCF7B7FCDDE90623FCF7ADFCBC
:103AE000DDE90023FCF7A9FC08B02A462346BDE81F
:103AF000F04DFCF7A5BC0B465A4630463946FCF75C
:103B0000A2FC084A084BFCF7F7FB42465346FCF779
:103B10009AFC08B02A462346BDE8F04DFCF7ECBB02
:103B2000461A0000495555555555C5BF0022134644
:103B300010460149FCF7F9BC0000F03F0122FCF7F8
:103B4000ADBEFCF7D9BB0022134610461146FCF768
:103B5000ECBC40F2013200204FF0E041FCF79EBE89
:103B6000024A00201107FCF799BE000001FDFFFF8B
:103B700002E008C8121F08C1002AFAD17047704736
:103B8000002001E001C1121F002AFBD17047000094
:103B900001490860704700006C0000202DE9FF5FBC
:103BA00082B00021DDE90430020DDDF840B00343AE
:103BB00018D044F61050A2F2FF3242431514119867
:103BC00001281FD0A5EB0B00401C5FEA000A4FF054
:103BD00000064E4FDFF83891B046504615D5CAF171
:103BE000000413E0119801244AA3012801D16FEACF
:103BF0000B010298119AC0E90031C0E9024206B0F7
:103C0000BDE8F09FCBF10000DFE704460021404A09
:103C1000491842EB0450CDE9001012E0E00707D04C
:103C200032463B4640464946FCF70DFC80468946F5
:103C300032463B4610461946FCF705FC06460F4641
:103C40006410002CEAD1DDE90401DDE90023BAF1BA
:103C5000000F06DAFCF7F7FB42464B46FCF7F3FB96
:103C600005E0FCF762FC42464B46FCF75EFC04466E
:103C70000E460022284BFCF791FE03D84FF0FF3090
:103C8000014607E00022254B20463146FCF734FB75
:103C9000FCF76CFE102409E0002C0ADB0A2200234A
:103CA000FCF716FD039B30321A55641E50EA0102E0
:103CB000F2D1641C039AC4F111031444119A012A2D
:103CC00003D0012208430DD10AE0084304D00020AC
:103CD0004FF0110B119072E7A3EB0B056D1E0DE079
:103CE0005B4504DD4FF0000205F1010504E003DA55
:103CF0004FF00002A5F10105002AECD002981199BD
:103D0000C0E90231C0E9004579E700000000144035
:103D10000000F03F300000000000F0430000E03FF2
:103D20002DE9FF4F95B09B468946064600250FE2D8
:103D3000252877D100242746F84A0121059400E080
:103D4000044316F8013F203B01FA03F01042F7D17B
:103D500030782A2811D06FF02F033078A0F130028C
:103D6000092A16D8059A44F0020402EB820203EBFA
:103D700042021044761C0590EFE759F8042B059297
:103D8000002A03DA504244F40054059044F002043F
:103D9000761C30782E2816D116F8010F44F0040452
:103DA0002A280DD06FF02F023078A0F13003092BB4
:103DB00009D807EB870302EB4303C718761CF3E728
:103DC00059F8047B761C30786C280FD006DC4C2820
:103DD00017D068280DD06A2814D104E0742810D0B8
:103DE0007A280FD10DE044F400140AE044F4801462
:103DF00001E044F440147278824202D104F5801448
:103E0000761C761C307866280BD013DC582877D0C7
:103E100009DC002875D04528F6D04628F4D047287C
:103E20001AD19DE118E0632835D0642879D065283F
:103E300012D195E1702873D008DC6728F1D0692889
:103E40006FD06E280DD06F2806D1B5E073282CD026
:103E5000752875D0782874D05A46179990476D1CEC
:103E600075E1C4F30250022809D003280DD0D9F817
:103E7000001004280DD00D6009F1040967E1D9F89C
:103E80000010EA17C1E90052F6E7D9F800100D80DA
:103E9000F2E70D70F0E719F8041B8DF80010002010
:103EA0008DF80100EA46012003E059F804AB4FF019
:103EB000FF3061074FF0000102D40DE008F101016D
:103EC0008846B9420FDA8045F8DB1AF80810002955
:103ED000F4D108E008F1010188468142FADB1AF8C2
:103EE00008100029F6D105985B46A0EB080721468B
:103EF0003846179A00F094FA284400EB080507E0CA
:103F00004DE029E10DE01AF8010B5A461799904748
:103F1000B8F10108F7D25B4621463846179A13E1FB
:103F200042E00A220092C4F302524FF0000A022A31
:103F300008D059F804CB032A4FEAEC710AD00DE0FF
:103F400029E02AE009F1070121F00702F2E802C1A5
:103F5000914609E00FFA8CFC4FEAEC71042A03D178
:103F60004FFA8CFC4FEAEC71002907DA0A4600216F
:103F7000DCF1000C61EB02012D2202E0220504D5E8
:103F80002B228DF80420012203E0E20701D0202239
:103F9000F7E7904659E00A2102E010220DE01021D7
:103FA0004FF0000A00910BE010224FF0000A44F09D
:103FB00004040827009203E008224FF0000A009250
:103FC000C4F30252022A05D059F804CB0021032A77
:103FD00008D009E009F1070121F00702F2E802C167
:103FE000914605E01FFA8CFC042A01D10CF0FF0C6D
:103FF0004FF00008220728D5702806D0009B83F0D8
:10400000100353EA0A0305D00EE040228DF8042085
:10401000012208E05CEA010206D030228DF804207B
:104020008DF8050002229046009B83F0080353EAB6
:104030000A030AD15CEA010201D1620705D53022E8
:104040008DF804204FF001087F1E582804D034A0BA
:1040500003900EA802900DE036A0F9E753466046A3
:10406000009AFCF735FB84460398825C0298401E58
:10407000029002705CEA0100F0D1029806A9081AC9
:1040800000F1200A600702D524F4803400E0012703
:10409000574502DDA7EB0A0000E0002000EB0A0113
:1040A000009005984144401A0590E00306D45B4611
:1040B0002146179A059800F0B3F90544002706E059
:1040C00001A85A46C05D179990476D1C7F1C474553
:1040D000F6DBE0030CD55B462146179A059800F005
:1040E0009FF9054404E030205A46179990476D1C0B
:1040F0000099481E00900029F5DC08E0029802991A
:104100005A460078491C0291179990476D1CBAF1E4
:104110000001AAF1010AF1DC65E1000009280100B3
:10412000303132333435363738396162636465662D
:1041300000000000303132333435363738394142EF
:10414000434445460000000000F058F90544761C41
:10415000307800287FF4ECAD19B02846BDE8F08F28
:10416000620700D4062709F1070222F0070CFCE8D9
:104170000223E14603F000485FEA080C02D00FF288
:10418000702C0DE05FEA045C02D50FF2682C07E0AA
:104190005FEAC47C02D00FF2602C01E0AFF2700C39
:1041A0004FF0FF3823F00043CDF850C065280CD005
:1041B00006DC452809D046281DD047283DD13DE0E2
:1041C000662818D067287ED138E00021112F01DB46
:1041D000112000E0781CCDE9000106A90EA8FFF728
:1041E000DDFCDDE90F010E9A03910021009207F139
:1041F000010A04914DE04FF000400097CDE9011015
:1042000006A90EA8FFF7CAFCDDE90F0203920E9B78
:1042100011990022DDF80CA00093049211B9791CC9
:1042200000EB010AB7EB0A0004D4C0F1FF3007F13C
:10423000010A0490AAEB0700019044E0012F00DA84
:1042400001270021112F01DD112000E03846CDE9C2
:10425000000106A90EA8FFF7A1FCDDE90F010E9AE7
:104260000391002104910092BA4621070CD40399CE
:10427000514500DA8A46BAF1010F05DD009AAAF12C
:104280000101515C302908D0B84202DA10F1040F64
:1042900006DA0121CDE9011015E0AAF10101E9E7F3
:1042A000002805DC049901440491AAEB000102E016
:1042B000411C514500DD8A460499401A401C01907A
:1042C0004FF000400290200704D40198504501DBD4
:1042D000CDF8048000208DF84F0002980DF14F07B3
:1042E000B0F1004F25D02B200E9002984FF002081D
:1042F00000280CDA404202902D200E9007E00A219F
:104300000298FCF7CFF93031029007F8011DB8F19F
:104310000001A8F10108F2DC02980028EFD1791E13
:104320000E980870307800F0200040F0450007F843
:10433000020D12A8C01B00F107081498007800B104
:10434000012000EB0A01019801EBE071059841445E
:10435000401A401E0590E00306D45B462146179A9A
:10436000059800F05DF805441498007818B15A4695
:10437000179990476D1CE00324D55B462146179A98
:10438000059800F04DF805441CE00498002807DB70
:10439000DDE90301884203DD0098405C179901E0E4
:1043A000179930205A469047049805F10105401CA2
:1043B00004900198401E019004D12E205A4617996E
:1043C00090476D1CBAF10001AAF1010ADDDC05E09D
:1043D00017F8010B5A46179990476D1CB8F1000168
:1043E000A8F10108F4DC5B462146179A0598ABE674
:1043F0002D0000002B000000200000002DE9F041FE
:10440000044600251E461746880404D405E03946B4
:104410002020B0476D1C641EF9D52846BDE8F08108
:104420002DE9F041044600251E469046C80301D5FB
:10443000302700E02027880404D505E041463846AF
:10444000B0476D1C641EF9D52846BDE8F081000018
:104450002DE9F84F04460D4621F0004000917349C4
:10446000814211DC7249884201DC06D12CB1204620
:104470002946BDE8F84FFFF761BB6E48002DCCBF61
:104480006D496E49BDE8F88F6D49814211DD6D4976
:104490008142D8BF4FF0FF366DDD20462946FFF739
:1044A00013F8042808BFFFF75BFB20462946BDE848
:1044B000F88F6549654F25F00045814233DD644939
:1044C000814219DD002632464FF0804320462946BE
:1044D000FBF712FF80468A46012220462946FCF758
:1044E000DDF900223B46FBF7A8FF42465346FCF7A6
:1044F0001CF804460D463EE001260022BA463B4623
:1045000020462946FBF7F8FE80460F460022534618
:1045100020462946FBF791FF42463B46FCF705F84B
:1045200004460D4627E04B4981421BDDDFF828A1F8
:1045300002260022534620462946FBF784FF00222C
:104540003B46FBF7D9FE80460F46002253462046E5
:104550002946FBF772FF42463B46FBF7E6FF04465F
:104560000D4608E0032622462B4600203B49FBF778
:10457000DCFF04460D4622462B4610461946FBF743
:1045800062FF8B46824602460B46FBF75CFF0746FE
:104590000246334888460B4606217844FFF7FAF96D
:1045A00052465B46FBF74FFF82462E488B463A4603
:1045B000434605217844FFF7EDF93A464346FBF7B9
:1045C00042FF02460B46002E504659460CDAFBF7D6
:1045D00093FE22462B46FBF736FF01B022462B46C0
:1045E000BDE8F04FFBF72CBFFBF786FE22462B46BB
:1045F000FBF729FF1C4A7A4402EBC603D3E90023E8
:10460000FBF71BFF22462B46FBF717FF174A7A449E
:1046100002EBC603D3E90023FBF712FF009A002A3E
:10462000B8BF81F00041BDE8F88F000000001044E1
:104630000000F07F182D4454FB21F93FFB21F9BF06
:104640000000DC3F0000203E0000F33F0000F03F90
:104650000000E63F008003400000F83F0000F0BF8C
:10466000820D0000400D0000DE0C0000A60C0000D2
:1046700000B5244B21F0004287B09A42DCBF0022F3
:10468000134629DD204B9A4208D140B94FF0010072
:10469000FFF77EFAFFF757FA07B000BD03DBFFF71D
:1046A0004DFA07B000BD02AAFEF732FF10F0030179
:1046B00004BF0DF1080C9CE80F000DD0012001296A
:1046C0000ED0022914D00DF1080C00909CE80F00C8
:1046D000FFF7B6F907B000BDFFF7DEF807B000BD81
:1046E0000DF1080C00909CE80F00FFF7A9F905E018
:1046F0000DF1080C9CE80F00FFF7CEF807B081F031
:10470000004100BDFB21E93F0000F07F70B50A4D7C
:104710002868406A094E318801EB4102C2EBC111A1
:1047200000EBC1042846FDF791FA29680020486291
:104730003080204670BD00000801002000000020ED
:1047400013B54FF47A73012269460248FDF72AFC3B
:1047500000981CBDC400002088B0FCF7B1FEFEF735
:1047600079FDFEF7D9FCFEF7FDFCFEF71BFDFEF719
:104770004FFD10A0FEF798FEFEF790FC04A8FEF790
:10478000F1FA0698FBF75FFF06460F460598FBF720
:104790005AFF04460D460498FBF755FF8DE8F000DC
:1047A00002460B4605A0FEF77FFE6420FCF7A0F949
:1047B000E4E7000057656C0A00000000583A252E17
:1047C00031662020593A252E316620205A3A252E6E
:1047D000316620200D0A00002DE9F04D1D460C46E3
:1047E00098B0174621F0004123F00043002814BF81
:1047F0004FF0010C4FF0000C0CEB440CFE4A0CEB9C
:1048000002064FEA620C66452BD33E0018BF012614
:1048100006EB45061644F94A964222D3F84A53EA73
:10482000070C02D0944205D148B918B000201146B7
:10483000BDE8F08D002808BF4FF0000C01D04FF00C
:10484000010C0CEB440212F5001F0AD8002F14BF14
:104850004FF0010C4FF0000C0CEB450212F5001F5D
:1048600007D918B03A462B462146BDE8F04DFFF770
:1048700068B90022DFF88CA3002CB8BF534526DAB4
:10488000DFF884C36345A8BF022220DADFF870C3D3
:104890009C451CDCDFF874C30CEB235CBCF1140FEB
:1048A00008DDCCF1340627FA06FC0CFA06F6BE4207
:1048B0000DD108E05FB9CCF1140623FA06FC0CFA1E
:1048C00006F69E4203D10CF00102C2F1020251EA47
:1048D000000C19D1002D17DA002C18BF022A01D0C4
:1048E000012A07D00220FFF753F918B0BDE8F04DB8
:1048F000FFF71CB90220FFF74BF9FFF717F918B0C3
:1049000081F00041BDE8F08DB7F1000C6CD153454A
:1049100025D104F1804212F5801201BF0028002049
:10492000B74918B008BFBDE8F08DB548884207DC2C
:10493000002DA1BF6046294618B0BDE8F08D07E004
:10494000281E05DA80F0004118B06046BDE8F08D01
:10495000AF497944D1E9000118B0BDE8F08DDFF826
:10496000A0C2634525D1002D1FDA19B1514512D1DE
:10497000D8B909E0002840F0EC82A24A214618B0DC
:1049800062F31E01BDE8F08D0020214618B060F3EF
:104990001E01BDE8F08D08DA18B02346BDE8F04DE1
:1049A000024600206146FBF7C0BD18B02146BDE8B5
:1049B000F08D514518DAB5F1804F0DD0A5F1005CAE
:1049C000BCF1FF5C10D1B4F1000C0DDB18B06146F6
:1049D000BDE8F04D00F03CBC234618B00246BDE8EF
:1049E000F04D1946FBF72FBD060024F0004C3BD1DB
:1049F000D9B1514533D1002C06DD002DA1BF0020D7
:104A0000514618B0BDE8F08D002C01DD002D1BDBF8
:104A1000002C13DA002D11DB012A4FF0000014BF27
:104A200078497C4918B0BDE8F08D022A18BF002CE7
:104A30000AD0012A08D1002C06DA0AE0002CB8BFFF
:104A4000002D11DA012A04D0002018B00146BDE87B
:104A5000F08D18B000204FF00041BDE8F08DA1F1BD
:104A60004050B0F17F601AD0012000EBE47050EAB2
:104A7000020421D0624C521E4FF0000B104304BFC1
:104A80004FF0000B644C654883427CDD644A654806
:104A900093421FDD884217DB002D25DB37E0002C19
:104AA00000DA4AB1022A0CBF01204FF0FF3018B0E3
:104AB000BDE8F04DFBF7B6BD0120FFF769F818B06F
:104AC000BDE8F04DFFF73FB84D4A8A4202DC002DA9
:104AD0000ADC1CE0814202DA002D18DA04E0484BBF
:104AE000994220DD002D12DD0220FFF751F8FFF77B
:104AF00030F805460E460022534658462146FBF73D
:104B0000A2FC18B066F31E012846BDE8F08D022015
:104B1000FFF73EF8FFF724F80A46214618B062F383
:104B20001E01BDE8F08D002230466146FBF785FC92
:104B300080460E466FF00102FBF7B0FE4FF0553293
:104B4000394BFBF77DFC42463346FBF77CFC0022E9
:104B5000364BFBF775FC82464246334604911046BD
:104B60001946FBF770FC5246049BFBF76CFC8A4627
:104B700000904FF0C0422E4B40463146FBF763FC9D
:104B80002C4A2B4B00E027E0CDE906015146009866
:104B9000FBF759FC82460191274A284B4046314693
:104BA000FBF751FC5246019BFBF747FC82460B4644
:104BB00002460591DDE90601FBF79EFBDDE90623D0
:104BC000002688463046FBF738FC5246059BFBF72B
:104BD00037FC024600F07EB90020B1F5801F07DAED
:104BE000352230466146FBF759FE06466FF0340029
:104BF00000EB215024E00000FFFF1F00FFFF0F002B
:104C00000000F03F0000F07F0000404301FCFFFF88
:104C1000B20A00000000F0FF0000F0BF0000E04119
:104C20000000F043FFFFEF3F5555D53F0000E03F48
:104C30004715F73FFE822B6544DF5DF80BAE543E0F
:104C4000A0F2FF300190C1F3130040F07F6141F00A
:104C500040510291FE498842D8BF002004DDFD4941
:104C60008142C8BF012001DD0D9008E000200D90B9
:104C70000198401C01900298A0F5801002900299C2
:104C8000F54878440B910D9900EBC100D0E9002361
:104C90000F9330460A920B99FBF7CFFBCDE9060143
:104CA000DDE90A2130460F9BFBF726FB02460B4647
:104CB0000020EA49FBF739FC059102460B460090BB
:104CC000DDE90601FBF7BFFB1490E5488A464FF08B
:104CD000000878440299006812904FF0005040EAB2
:104CE00061010D980F9B01EB804000F500210991B7
:104CF0000A9A1298FBF7A1FB32460B9BFBF7A0FB2D
:104D000042465346FBF79FFB0646029140465146FA
:104D1000099B129AFBF797FBDDE90623FBF790FB53
:104D20003246029BFBF789FB059B009AFBF78BFB46
:104D30000091149A0490534610461946FBF783FBE2
:104D400006460246C7480B46029106217844FEF704
:104D500021FECDE90510029B324610461946FBF7AD
:104D600072FBDDE90532FBF76EFB05910646534603
:104D700040461946149AFBF7BFFA009B049AFBF7CA
:104D800062FB3246059BFBF7B7FACDE905104246B8
:104D9000534610461946FBF756FB0022B24B0291D0
:104DA0000A90FBF7A9FADDE90532FBF7A5FA0E46F2
:104DB0004246AD4B4046FBF740FB029B0A9AFBF78D
:104DC0003CFBDDE90532FBF73BFB424602910A90D2
:104DD000334610465146FBF736FBCDE906015346F4
:104DE000149A02990A98FBF72EFB8A4602903346E2
:104DF000424600990498FBF726FB5346029AFBF7BC
:104E00007BFA82460B4602460591DDE90601FBF777
:104E100073FADDE90623002088460646FBF70DFB02
:104E20005246059BFBF70CFB824609914FF060420E
:104E30008E4B30464146FBF706FB049006918C4AA8
:104E40008A4B50460999FBF7FEFA82460291894A3D
:104E5000894B30464146FBF7F6FA5246029BFBF778
:104E60004BFA864B7B440D9A03EBC203D3E9002334
:104E7000FBF742FA0E9007910198FBF7D3FB0591DF
:104E8000DDE9061382460E9A0498FBF735FA7C4A50
:104E90007A440D9B02EBC303D3E9002300930292F3
:104EA000FBF72AFA5246059BFBF726FA00268846AE
:104EB00052463046059BFBF7C0FA009B029AFBF76F
:104EC000BCFA069B049AFBF7B8FA079B0E9AFBF70D
:104ED000B7FA024600200B46029038462946FBF7F7
:104EE000B2FA824601912B4638461946029AFBF7E0
:104EF000A4FA32464346FBF7A6FA5246019BFBF75B
:104F0000FBF907468A463246434629460298FBF794
:104F10009AFA05460E463A465346FBF7EDF9594ACA
:104F20008846914221DBA8EB020353EA000210D12C
:104F30002A463346FBF781FACDE90401524A534B26
:104F400038465146FBF7D8F9DDE90423FBF726FD87
:104F500021D20220FEF71CFEFEF7FBFD0A46214689
:104F600018B062F31E01BDE8F08D494B28F00042F5
:104F70009A4210D3474A08EB020353EA00027FF437
:104F8000C6AD2A463346FBF758FA3A465346FBF776
:104F900005FD7FF6BCAD0022019228F000403E499D
:104FA0003E4A01EB2051824223DA481C4FF4801123
:104FB00021FA00F040443A4AC0F30A517A44394B8E
:104FC000A1F2FF31CB4020EA0303C0F3130040F409
:104FD0008010C1F11401C84012680190B8F1000FAF
:104FE000BCBF4042019028463146FBF726FA0546F1
:104FF0000E462A46334638465146FBF77DF94FF0B8
:1050000000084246284B40460591FBF71CFACDE9C3
:105010000601264A264B40460599FBF714FA0091F3
:1050200002902A46334640460599FBF706FA3A466F
:105030005346FBF705FA1F4A1F4BFBF704FA009B88
:10504000029AFBF759F90746884602460B4635E0B7
:105050008E9803007AB60B00CA0600000000F03FED
:1050600032070000300600000000084009C7EE3F8C
:10507000FD033ADCF5015B14E02F3EBE080500009D
:10508000CC04000000009040FE822B654715973C41
:1050900000CC904000346F3F01FCFFFF0000E03F78
:1050A00048040000FFFF0F00432EE63F396CA80CB8
:1050B000615C20BEEF39FAFE422EE63FDDE90601D3
:1050C000FBF71AF9DDE9062305460E46FBF7B5F9AD
:1050D0003A464346FBF7B4F90F462A46334600905A
:1050E00010461946FBF7AFF9824602462E4888461D
:1050F0000B4605217844FEF74DFC52464346FBF72C
:10510000A2F92A463346FBF79BF980468A463B467E
:1051100028463146009AFBF796F93B46009AFBF782
:10512000EBF80691009000224FF080434046514634
:10513000FBF783F90F460C9042465346284631460A
:10514000FBF781F93B460C9AFBF7EFF9069B009AB7
:10515000FBF773F92A463346FBF76FF90022134B2E
:10516000FBF76EF9054601980E4601EB0051081554
:10517000002810DC28463146019AFBF78FFBFEF72A
:10518000A3F9042808BFFEF7EBFC28463146019A34
:10519000FBF784FB05460B4618B02A4658462146C5
:1051A000BDE8F04DFBF74FB9B80200000000F03F3A
:1051B00000B5254B21F0004287B09A4203DC002263
:1051C000134600922BE0214B9A4208D140B94FF090
:1051D0000100FEF7DDFCFEF7B6FC07B000BD03DB07
:1051E000FEF7ACFC07B000BD02AAFEF791F910F083
:1051F00003014FF001000DD0012914D002291AD06B
:105200000DF1080C9CE80F00FEF746FB07B081F09B
:10521000004100BD0DF1080C00909CE80F00FEF766
:105220000FFC07B000BD0DF1080C9CE80F00FEF765
:1052300033FB07B000BD0DF1080C00909CE80F0097
:10524000FEF7FEFBE2E70000FB21E93F0000F07FF4
:105250002DE9F04106460F46FBF737FB041E0D46CD
:1052600018BF0120284320F00040C0F17F6000F10A
:10527000E040C00F0ED0301C18BF0120384320F092
:105280000040C0F17F6000F1E040C00F04BF01208A
:10529000FEF77EFC20462946BDE8F08100000000B4
:1052A00000000000010203040607080900000000D6
:1052B00001020304000000004FBB610567ACDD3F45
:1052C000182D4454FB21E93F9BF681D20B73EF3F2D
:1052D000182D4454FB21F93FE2652F227F2B7A3CA5
:1052E000075C143326A6813CBDCBF07A8807703C5E
:1052F000075C143326A6913CC4EB98999999C9BFD1
:10530000711623FEC671BCBF6D9A74AFF2B0B3BF05
:105310009AFDDE522DDEADBF2F6C6A2C44B4A2BFC5
:105320000D5555555555D53FFF8300922449C23F31
:105330006E204CC5CD45B73F513DD0A0660DB13F65
:10534000EB0D76244B7BA93F11DA22E33AAD903F77
:10535000000000000000F03F000000000000F83FE7
:1053600000000000000000000000004003B8E23F21
:10537000000000000000000006D0CF43EBFD4C3ED3
:10538000033333333333E33FFFAB6FDBB66DDB3FC8
:105390004D268F515555D53F01411DA96074D13F10
:1053A00065DBC9934A86CD3FEF4E454A287ECA3F0A
:1053B0003E5555555555C53F93BDBE166CC166BF8C
:1053C0002CDE25AF6A56113FF16BD2C541BDBBBE85
:1053D000D0A4BE726937663E4C5555555555A53F0C
:1053E0007751C1166CC156BF9015CB19A001FA3E7A
:1053F000AD529C804F7E92BEC4B1B4BD9EEE213EA4
:10540000D43888BEE9FAA8BD000000000000000002
:1054100000004054FB21F93F3163621A61B4D03D72
:105420000000601A61B4D03D7370032E8A19A33B4B
:105430000000002E8A19A33BC14920259A837B399D
:1054400000000000000000006E83F9A22915444E00
:10545000D15727FCC0DD34F5999562DB4190433C80
:10546000AB6351FE61C5BBDE3A6E24B7E0D24D425C
:10547000EA2E49061C92D1091CEB1DFE3EA729B15C
:10548000F53582E88444BB2E26709CE9417E5FB4EA
:1054900039D69139F43953838B5F849C3B28F9BD0D
:1054A000FF97F81F0F9805DE8B112FEF1F6D0A5A1B
:1054B000CF7E366DB709CB27663F464F2DEA5F9EFC
:1054C000C7BA27757BF1E5EBF739073DEA92528AB7
:1054D000B15FFB6B085D8D1FA6F810111111813FA4
:1054E000D561C119A0012ABF7DFEB157E31DC73E9A
:1054F000EB9C2B8AE6E55ABE7CD5CF5A3AD9E53DDE
:10550000205500080000002070000000703B0008DB
:105510009055000870000020F0040000803B000857
:10552000000000000100000010000000000000006A
:105530000024F40000000000000000000000000053
:10554000000000000000000000000000000000005B
:1055500000000000000000000000803F000000008C
:10556000000000000000803F8FC2F53C00000000FA
:10557000000000008FC2F53C9A99993E000000009F
:10558000000000009A99993E000000000000000011
:04000005080000ED02
:00000001FF
